:100000000C9434000C9451000C9451000C94510049
:100010000C9451000C9451000C9451000C9451001C
:100020000C9451000C9451000C9451000C9451000C
:100030000C9451000C9451000C9451000C945100FC
:100040000C9457010C9451000C9451000C945100E5
:100050000C9451000C9487000C9451000C945100A6
:100060000C9451000C94510011241FBECFEFD8E026
:10007000DEBFCDBF11E0A0E0B1E0E4E2F6E002C0F7
:1000800005900D92A230B107D9F721E0A2E0B1E0CE
:1000900001C01D92A830B207E1F70E9484000C94C1
:1000A00010030C940000ECE7F0E010828081806483
:1000B0008083808180628083EAE7F0E01082808123
:1000C0008360808380818860808380818068808372
:1000D0000895F8940E9453000E9418010E9439016B
:1000E0000E94480184B1816084B9E1E6F0E080E8D3
:1000F000808384E080831092C1007894EAE7F0E086
:1001000080818064808308950E946900FFCF1F92E0
:100110000F920FB60F9211242F933F934F935F933B
:100120006F937F938F939F93AF93BF93EF93FF93BF
:10013000809105018F5F80930501823081F118F471
:10014000813041F05FC0833009F44BC0843009F442
:1001500057C058C0ECE7F0E080818E7F80838081BB
:1001600086608083609179006093040170E080E094
:1001700090E00E9417022DEB3CEB4CE35FE30E9402
:10018000A30220E030E04AE852E40E947A010E9493
:10019000E601862F609301010E94330133C0ECE732
:1001A000F0E0808187608083609179006093030133
:1001B00070E080E090E00E9417022DEB3CEB4CE3F6
:1001C0005FE30E94A30220E030E04AE852E40E948C
:1001D0007A010E94E601862F609300010E9442018D
:1001E00011C0ECE7F0E080818D7F808380818560A5
:1001F000808380917900809302010E94540102C0A3
:1002000010920501EAE7F0E0808180648083FF912D
:10021000EF91BF91AF919F918F917F916F915F917E
:100220004F913F912F910F900FBE0F901F901895F7
:1002300084B1826084B9E0E8F0E010828081806857
:100240008083808182608083E1E8F0E08081886142
:10025000808380818260808383EC99E09093870023
:1002600080938600089590E09093890080938800A1
:10027000089584B1846084B9E0E8F0E08081806210
:100280008083089590E090938B0080938A00089576
:100290008AB180648AB914BC83E085BD8FEF86BDC6
:1002A00081E080936E0008958093060108951F9267
:1002B0000F920FB60F9211248F939F939091070185
:1002C00080910601981720F08BB18F7B8BB903C00A
:1002D0008BB180648BB9809107018F5F8093070198
:1002E0008FEF86BD9F918F910F900FBE0F901F9043
:1002F00018955058BB27AA270E9491010C946902B7
:100300000E945B0238F00E94620220F039F49F3FA5
:1003100019F426F40C9458020EF4E095E7FB0C94C3
:100320005202E92F0E947A0258F3BA176207730744
:100330008407950720F079F4A6F50C949C020EF43E
:10034000E0950B2EBA2FA02D0B01B90190010C01E5
:10035000CA01A0011124FF27591B99F0593F50F4FD
:10036000503E68F11A16F040A22F232F342F442755
:10037000585FF3CF469537952795A795F04053954D
:10038000C9F77EF41F16BA0B620B730B840BBAF01D
:100390009150A1F0FF0FBB1F661F771F881FC2F788
:1003A0000EC0BA0F621F731F841F48F4879577959C
:1003B0006795B795F7959E3F08F0B0CF9395880F56
:1003C00008F09927EE0F9795879508950E9482026D
:1003D00088F09F5798F0B92F9927B751B0F0E1F006
:1003E000660F771F881F991F1AF0BA95C9F714C0B6
:1003F000B13091F00E949C02B1E008950C949C02EF
:10040000672F782F8827B85F39F0B93FCCF38695EE
:1004100077956795B395D9F73EF49095809570954B
:1004200061957F4F8F4F9F4F0895E89409C097FBC8
:100430003EF490958095709561957F4F8F4F9F4FBB
:100440009923A9F0F92F96E9BB279395F6958795FF
:1004500077956795B795F111F8CFFAF4BB0F11F4C2
:1004600060FF1BC06F5F7F4F8F4F9F4F16C0882369
:1004700011F096E911C0772321F09EE8872F762F9F
:1004800005C0662371F096E8862F70E060E02AF0E0
:100490009A95660F771F881FDAF7880F96958795CC
:1004A00097F9089597F99F6780E870E060E00895F4
:1004B0009FEF80EC089500240A941616170618067C
:1004C0000906089500240A94121613061406050658
:1004D0000895092E0394000C11F4882352F0BB0FE9
:1004E00040F4BF2B11F460FF04C06F5F7F4F8F4F4C
:1004F0009F4F089557FD9058440F551F59F05F3F87
:1005000071F04795880F97FB991F61F09F3F79F035
:1005100087950895121613061406551FF2CF4695B7
:10052000F1DF08C0161617061806991FF1CF869539
:100530007105610508940895E894BB27662777271D
:10054000CB0197F908950E94B6020C9469020E94AB
:100550005B0238F00E94620220F0952311F00C94A7
:1005600052020C94580211240C949D020E947A02AB
:1005700070F3959FC1F3950F50E0551F629FF001F6
:10058000729FBB27F00DB11D639FAA27F00DB11D0F
:10059000AA1F649F6627B00DA11D661F829F222798
:1005A000B00DA11D621F739FB00DA11D621F839F1F
:1005B000A00D611D221F749F3327A00D611D231FF5
:1005C000849F600D211D822F762F6A2F11249F5743
:1005D00050409AF0F1F088234AF0EE0FFF1FBB1F46
:1005E000661F771F881F91505040A9F79E3F510505
:1005F00080F00C9452020C949D025F3FE4F3983E0D
:10060000D4F3869577956795B795F795E7959F5FAE
:10061000C1F7FE2B880F911D9695879597F9089540
:04062000F894FFCF7C
:020624008080D4
:00000001FF
