S01800005072656C61626F7261746F72696F5F352E73726563B3
S11300000C9434000C9449000C9449000C9449005D
S11300100C9449000C9449000C9449000C94490038
S11300200C9449000C9449000C9449000C94490028
S11300300C9449000C9449000C9449000C94490018
S11300400C9449000C9449000C9449000C94490008
S11300500C9449000C949E000C9449000C944900A3
S11300600C9449000C94490011241FBECFEFD8E032
S1130070DEBFCDBF11E0A0E0B1E0E0ECF2E002C0F1
S113008005900D92A230B107D9F70E9489000C9413
S11300905E010C94000010928000E1E8F0E08081A1
S11300A08260808382E390E0909385008093840053
S11300B081E080936F000895ECE7F0E01082808186
S11300C08064808380818F77808380818660808351
S11300D0EAE7F0E010828081836080838081886019
S11300E080838081806880830895F8940E944B0007
S11300F00E945C0068E070E080E00E94D900E1E6C4
S1130100F0E080E8808384E080831092C1007894DA
S113011008950E947500809100010E943001809131
S113012000018F5F809300012FEF89EF90E0215051
S113013080409040E1F700C00000EDCF1F920F9285
S11301400FB60F9211242F933F934F935F936F93A6
S11301507F938F939F93AF93BF93EF93FF9380917C
S1130160790090E09C01220F331F220F331F820F6E
S1130170931F6FEF70E00E94360185E0860F809335
S113018000010E943001EAE7F0E08081806480830E
S1130190FF91EF91BF91AF919F918F917F916F915B
S11301A05F914F913F912F910F900FBE0F901F9031
S11301B018959AB190649AB9E0E8F0E090819F7341
S11301C09083813021F48081806C808305C0E0E8D5
S11301D0F0E0808180688083E0E8F0E080818360E3
S11301E08083E1E8F0E08081887F8083603471055A
S11301F0E1F038F46130710561F06830710579F02F
S113020026C0693081E07807B1F061157440C9F007
S11302101EC0E1E8F0E08081816080831BC0E1E8DA
S1130220F0E080818260808315C0E1E8F0E08081A5
S1130230836080830FC0E1E8F0E080818460808384
S113024009C0E1E8F0E080818560808303C085B562
S1130250816085BDE1E8F0E080818260808308955B
S113026090E09093890080938800089597FB072E6F
S113027016F4009407D077FD09D00E944A0107FCC8
S113028005D03EF4909581959F4F089570956195A2
S11302907F4F0895AA1BBB1B51E107C0AA1FBB1FB8
S11302A0A617B70710F0A61BB70B881F991F5A95FE
S11302B0A9F780959095BC01CD010895F894FFCFDE
S10502C06500D3
S9030000FC
