:100000000C9434000C9451000C9451000C94510049
:100010000C9451000C9451000C9451000C9451001C
:100020000C9451000C9451000C9451000C9451000C
:100030000C9451000C9451000C9451000C945100FC
:100040000C9451000C9451000C9451000C945100EC
:100050000C9451000C9490000C9451000C9451009D
:100060000C9451000C94510011241FBECFEFD8E026
:10007000DEBFCDBF11E0A0E0B1E0ECEAF5E002C0E8
:1000800005900D92A230B107D9F721E0A2E0B1E0CE
:1000900001C01D92A530B207E1F70E948D000C94BB
:1000A000D4020C940000ECE7F0E0108280818064C0
:1000B0008083808180628083EAE7F0E01082808123
:1000C0008360808380818860808380818068808372
:1000D000089514BC83E085BD81EB86BD81E08093EB
:1000E0006E000895F8940E9453000E940D010E9432
:1000F0002E010E94690084B1816084B9E1E6F0E0DC
:1001000080E8808384E080831092C1007894EAE7DD
:10011000F0E080818064808308950E947200FFCFA8
:100120001F920F920FB60F9211242F933F934F936C
:100130005F936F937F938F939F93AF93BF93EF934F
:10014000FF93809104018F5F80930401823059F105
:10015000833009F44AC0813009F049C0ECE7F0E08F
:1001600080818E7F8083808186608083609179002A
:100170006093030170E080E090E00E94DB012DEBD2
:100180003CEB4CE35FE30E94670220E030E04AE88A
:1001900052E40E943E010E94AA01862F6093010151
:1001A0000E94280124C0ECE7F0E080818760808312
:1001B000609179006093020170E080E090E00E941D
:1001C000DB012DEB3CEB4CE35FE30E94670220E098
:1001D00030E04AE852E40E943E010E94AA01862FC4
:1001E000609300010E94370102C010920401EAE707
:1001F000F0E0808180648083FF91EF91BF91AF91A7
:100200009F918F917F916F915F914F913F912F912E
:100210000F900FBE0F901F90189584B1826084B923
:10022000E0E8F0E0108280818068808380818260D5
:100230008083E1E8F0E08081886180838081826052
:10024000808383EC99E090938700809386000895E3
:1002500090E09093890080938800089584B1846031
:1002600084B9E0E8F0E0808180628083089590E0C6
:1002700090938B0080938A0008955058BB27AA273B
:100280000E9455010C942D020E941F0238F00E941A
:10029000260220F039F49F3F19F426F40C941C0236
:1002A0000EF4E095E7FB0C941602E92F0E943E0243
:1002B00058F3BA17620773078407950720F079F49B
:1002C000A6F50C9460020EF4E0950B2EBA2FA02D2B
:1002D0000B01B90190010C01CA01A0011124FF27F3
:1002E000591B99F0593F50F4503E68F11A16F040EE
:1002F000A22F232F342F4427585FF3CF46953795ED
:100300002795A795F0405395C9F77EF41F16BA0BB1
:10031000620B730B840BBAF09150A1F0FF0FBB1F5F
:10032000661F771F881FC2F70EC0BA0F621F731FA8
:10033000841F48F4879577956795B795F7959E3F05
:1003400008F0B0CF9395880F08F09927EE0F979596
:10035000879508950E94460288F09F5798F0B92F1C
:100360009927B751B0F0E1F0660F771F881F991FEA
:100370001AF0BA95C9F714C0B13091F00E9460022A
:10038000B1E008950C946002672F782F8827B85F3A
:1003900039F0B93FCCF3869577956795B395D9F742
:1003A0003EF490958095709561957F4F8F4F9F4F4C
:1003B0000895E89409C097FB3EF490958095709558
:1003C00061957F4F8F4F9F4F9923A9F0F92F96E9A1
:1003D000BB279395F695879577956795B795F11116
:1003E000F8CFFAF4BB0F11F460FF1BC06F5F7F4FB3
:1003F0008F4F9F4F16C0882311F096E911C07723C5
:1004000021F09EE8872F762F05C0662371F096E8CD
:10041000862F70E060E02AF09A95660F771F881F9C
:10042000DAF7880F9695879597F9089597F99F675A
:1004300080E870E060E008959FEF80EC089500246C
:100440000A941616170618060906089500240A9439
:1004500012161306140605060895092E0394000CBF
:1004600011F4882352F0BB0F40F4BF2B11F460FF4E
:1004700004C06F5F7F4F8F4F9F4F089557FD905877
:10048000440F551F59F05F3F71F04795880F97FB58
:10049000991F61F09F3F79F0879508951216130612
:1004A0001406551FF2CF4695F1DF08C01616170641
:1004B0001806991FF1CF8695710561050894089576
:1004C000E894BB2766277727CB0197F908950E9408
:1004D0007A020C942D020E941F0238F00E9426021C
:1004E00020F0952311F00C9416020C941C02112498
:1004F0000C9461020E943E0270F3959FC1F3950F28
:1005000050E0551F629FF001729FBB27F00DB11D97
:10051000639FAA27F00DB11DAA1F649F6627B00D27
:10052000A11D661F829F2227B00DA11D621F739F10
:10053000B00DA11D621F839FA00D611D221F749F1E
:100540003327A00D611D231F849F600D211D822F65
:10055000762F6A2F11249F5750409AF0F1F088238C
:100560004AF0EE0FFF1FBB1F661F771F881F9150B9
:100570005040A9F79E3F510580F00C9416020C9450
:1005800061025F3FE4F3983ED4F3869577956795D3
:10059000B795F795E7959F5FC1F7FE2B880F911DE3
:0C05A0009695879597F90895F894FFCF81
:0205AC0080804D
:00000001FF
